:02000004C0D06A
:10000000B0B58CB062B6164CFC21204604F092F9D3
:1000100003F0BCFF01F008FB6D46284604F028FA07
:10002000A88585B26846002D0BD0002181850A98ED
:1000300002F088FE102DE7D001F0D2FA00200CB0BB
:10004000B0BD02F07FFE0A9001F062FC002003F0D8
:1000500007FD012003F004FD00F006FF01F02EFA79
:100060008018002010B582B030236C462360034B0B
:100070007B4402F07BFD02B010BDC04694440000FA
:1000800010B582B030236C462360034B7B4402F0F2
:100090008DFD02B010BDC04678440000B0B582B0FE
:1000A00030236C46044D7D4425606360012302F0DB
:1000B0008DFD02B0B0BDC0465E440000F0B581B019
:1000C0000D4604461D4979443022284601F0D0FAF5
:1000D0002E463036002807D119497944302230465F
:1000E00001F0C6FA002814D03027204629463A46A7
:1000F00001F09FFA2046303031463A4601F099FA35
:1001000060341249794420463A4601F092FA01B02F
:10011000F0BD0C4D7D44302620462946324601F084
:1001200088FA2046303008497944324601F081FA95
:100130006034204629463246E7E7C0469E44000028
:100140008A440000504400006C44000090440000C9
:10015000F0B5A9B00D4607462C46603424497944D1
:1001600030262046324601F083FA002830D004952C
:100170001DAD0397204F7F44284621463A4633461B
:1001800002F036FD6846066011AC204629462A4634
:100190003B4602F00BFD6846066005A8029021462A
:1001A0002A463B4602F002FD68460660039D28464B
:1001B000049922463B4602F0F9FC68460660303559
:1001C000049930312846029A3B4602F0EFFC0DE0DC
:1001D000084C7C443025384621462A4601F029FA4D
:1001E0003037384621462A4601F023FA29B0F0BDBF
:1001F00006440000924300008E430000F0B5D3B0E7
:100200000D4607462E4660365E4979443024304616
:10021000224601F02DFA002800D1ABE068460460C8
:1002200047A808900596584E7E4429462A463346EC
:1002300002F0BCFC684604602946303104910A97FC
:100240003BAF38460A46334602F0B0FC68460460CD
:100250002FA8099039463A46334602F0A7FC684673
:1002600004600A9829463A46334602F07FFC684605
:1002700004600A9F3D4630352846079539463A4680
:10028000334602F093FC68460460603738460397B3
:100290002946089A334602F079FC684604600A9DB4
:1002A00028463946099A334602F070FC68460460D5
:1002B00023A8069029462A46334602F057FC684692
:1002C000046017AD314979442846089A334602F054
:1002D0006DFC684604600BAF3846029529462A46F5
:1002E000334602F063FC68460460079D2846069981
:1002F0000A46334602F03AFC684604600A983946DA
:1003000008972A46334602F041FC684604602846B6
:1003100006990A9A334602F039FC684604601C4983
:1003200079443846099A334602F040FC6846046036
:10033000039D28460299079F3A46334602F036FC51
:100340006846046038462946089F3A46334602F01C
:100350001DFC6846046038460499059A334602F04D
:1003600025FC68460460284639463A46334602F082
:10037000FDFB04E090223846294603F0E1FF53B02C
:10038000F0BDC0465A430000DC420000FE420000BF
:10039000D4420000F0B5FFB094B015460F460446B5
:1003A0003E466036A44979443022304601F060F977
:1003B000002800D12FE10E942C4660349F497944E7
:1003C0003022204601F054F9002800D127E10D9495
:1003D000302438462946224601F04AF92946303170
:1003E0000C91394630310A9100280ED130220A98FA
:1003F0000C9901F03DF9002807D1302230460D99C3
:1004000001F036F9002800D111E16846046087A8A0
:100410000790314609918A4E7E440A46334602F0DF
:10042000C5FB684604607BA808900D990A463346D0
:1004300002F0BCFB684604606FA805903946089F2F
:100440003A46334602F0B2FB6846046063A8049063
:100450002946079D2A46334602F0A8FB68460460F9
:100460000E980D993A46334602F0A0FB68460460A8
:1004700057A80B900A990E9F3A46334602F096FB16
:1004800068460460303738460A9709992A46334649
:1004900002F08CFB684604604BA803900C993A4626
:1004A000334602F083FB684604603FAF3846049948
:1004B000059A334602F06AFB684604600E9D60357B
:1004C0002846069739463A46334602F04FFB6846BF
:1004D000046033AF3846029729462A46334602F075
:1004E00065FB6846046027A80C9006993A46334697
:1004F00002F05CFB684604600E9F384603990B9A35
:10050000334602F043FB684604601BA8049039465A
:100510003A46334602F02AFB684604600FA803906F
:100520000599029A334602F041FB6846046038465A
:1005300004990A46334602F039FB684604600A987B
:1005400003990A46334602F011FB684604602846C8
:1005500039460C9A334602F019FB68460460384667
:1005600029460A9F3A46334602F010FB684604606B
:10057000384603990E9A334602F008FB6846046039
:1005800028460B9F39460C9A334602F00FFB68460B
:100590000460384629462A46334602F0E7FA6846A0
:1005A0000460284604990A9F3A46334602F0FEFA50
:1005B00068460460384629460B9F3A46334602F0A7
:1005C000E5FA68460460284609990D9A334602F018
:1005D000CDFA68460460384629462A46334602F07A
:1005E000E5FA6846046028463946079A334602F021
:1005F000CDFA684604600C9F38462946089A33466F
:1006000002F0C4FA6846046028463946069A334622
:1006100002F0CCFA08E090222046294602E090221F
:100620000E98394603F08CFE7FB014B0F0BD0E98E2
:100630003946FFF7E3FDF7E7BE410000A6410000A1
:10064000EC400000F0B5CBB016460F4604462C49EE
:100650007944902203F074FE304660302949794491
:10066000302201F005F8002847D02749794430228C
:10067000384600F0FDFF00283FD0029427A89022C2
:10068000314603F05DFE00250197AC1CE0083E5C9E
:1006900003A827AA029F3946FFF77CFE0720A04344
:1006A00001218140314212D003AE902238463146BA
:1006B000174603F045FE27AC30462146FFF79EFD66
:1006C000204631463A46019F03F03AFE10E027A843
:1006D00003AE90243146224603F032FE30463946BE
:1006E000FFF78CFD384631462246019F03F028FE75
:1006F0006D1CBF2040008542C7D14BB0F0BDC04645
:10070000D43F0000063F000048400000F0B5C9B0EB
:100710000C46054625AE30461146FFF7CFFC01AF2B
:10072000384621463246FFF78DFF28463946FFF707
:100730000FFD49B0F0BD000070B58EB014460D46F7
:1007400010490A9100210C910D910121C90708431C
:100750002C3109910B9001AE68460660212009A951
:100760000522234602F05EFA204620301022314650
:1007700000F05FFF044A7A4428462146FFF7C6FF8F
:100780000EB070BDDAC000806E3F0000F0B5A5B0BD
:100790001E4617460C46009001AD0D497944902243
:1007A000284603F0CDFD284621463A4601F082FF57
:1007B0002A9A2846314601F07DFF2B99284601F000
:1007C0006FFF0098294601F086FF25B0F0BDC046B6
:1007D000A83F0000F0B593B017460C4605466846A2
:1007E00039463031049101600693436007AE189991
:1007F000199A30460391029205973B46FFF7C6FFD0
:100800001E4A7A4428463146FFF780FF5F20285C65
:10081000C00709D030206946086007A81849794404
:1008200002460B4602F0B2F93026284629463246E7
:1008300000F0FFFE6846056002994160204603997A
:10084000059A049BFFF7A2FF0E4979442022204617
:1008500000F0EFFE684606600B4D7D4420462146C1
:10086000069A2B4602F0A2F96846066007A92046C0
:1008700022462B4602F07AF913B0F0BDE23E0000AA
:10088000163D00006A3E0000DA3C0000F0B5002A88
:1008900011D00B4B7B44044615460E7836099E5DFD
:1008A00026700E780F273740DE5D6670A41C6D1E23
:1008B000491C002DF1D1510000224254F0BDC04628
:1008C000403F0000F0B585B00446104618430028AC
:1008D0003ED0019400270492164603931C463D46E1
:1008E0000A22304621462B4603F0F0FB0123092E55
:1008F0001A4600D82A46002C00D12346002C00D0EE
:100900001A467F1C002A06460C46E9D10198401E73
:10091000029000973D46039C049804900A26002705
:10092000214632463B4603F0D1FB03900C4632464B
:100930003B4603F0EBFB0499081A3021014302986F
:1009400041556D1E002D0398E7DC019C009802E0E4
:100950003020207001200021215405B0F0BD00009E
:10096000F0B587B004920178427812020A43817888
:10097000C07800020843000410435D4C2060601DF5
:100980005D4979441022039200F053FE20462D3039
:100990005A4979440522029200F04BFE2668002E47
:1009A0003ED000240696254627460A223046294690
:1009B000234603F08BFB0123092E1A4600D822465A
:1009C000002D00D12B46002D00D01A467F1C002A96
:1009D00006460D46E9D1002401973D4606980A26B1
:1009E00000270690214632463B4603F06FFB0590F8
:1009F0000C4632463B4603F089FB0699081A302123
:100A000001433B484019312281546D1E002D059849
:100A1000E5DC01993648024650183230144605E0AC
:100A20003220302121542046333001210027077025
:100A30006018323032497944022200F0FAFD2C2548
:100A40002C4E029870556420032131542D4878446F
:100A5000B0622D48784437637063B76630466430BF
:100A600002F00AF90424204602F078F9B06600F09A
:100A70006FFF00F06FFFF784204602F06FF9B06659
:100A800000282ED097282CD0B06A002829D0F08CCE
:100A9000AA24715D80B2884223D202F02BF900288B
:100AA0001FD102F0B3F8A04203D102F0D9F8A0425E
:100AB00017D1B06AF18C49014018316B002902D07E
:100AC0008847002807D0012803D1B06AF18C49017A
:100AD000401800F0D3F9F08C401CF084B16A002972
:100AE000D7D104990868039A1043086007B0F0BD95
:100AF0007C19002080180020633E0000633E000047
:100B0000C53D0000BA3D0000B5000000F0B5A5B03D
:100B1000514988420AD05149884200D098E0534850
:100B2000002100F07FF900F09FF991E04C4F386808
:100B30000DAD01AA2946FFF7FFFD4A4C602620466D
:100B40002946324600F075FD09252803314600F09C
:100B500069F9781D464979442A4600F06AFD38460D
:100B600056300021434A7A440B46E55C2E09965DD7
:100B7000CF43C6550F262E40955D0570801C5B1C2B
:100B8000302BF2D1B5200025354F3D54FF242046AF
:100B900016303818394655310C2200F04AFD2234FF
:100BA0003D552C210091304E0520705464200321C6
:100BB00031543D7130487844B0623048784430490F
:100BC000794431637063B5663046643002F054F89E
:100BD0000424204602F0C2F8B06600F0B9FE00F02E
:100BE000B9FEF584009D204602F0B8F8B0660028F2
:100BF0002ED097282CD0B06A002829D0F08CAA24B7
:100C0000715D80B2884223D202F074F800281FD1AF
:100C100001F0FCFFA04203D102F022F8A04217D15C
:100C2000B06AF18C49014018316B002902D0884725
:100C3000002807D0012803D1B06AF18C490140187F
:100C400000F01CF9F08C401CF084B16A0029D7D167
:100C5000002025B0F0BDC0460200008001000080E9
:100C60007C190020FC1B00208018002085690000F2
:100C7000A73C00006E3C0000F23C0000C5000000F4
:100C800039020000B0B5012808DD02285BD05649C2
:100C9000884258D05549884207D0A3E05449884239
:100CA00000D19DE0012800D09CE052490879002540
:100CB00000282A4601D0421E0A71FF20163008186B
:100CC000D2B2891855310C2200F0B3FC00F040FE7E
:100CD00000F040FE484CE584042002F03FF8A06696
:100CE00000287FD097287DD0A06A00287AD0E08C99
:100CF000AA252C21615C80B2884273D201F0FAFFF0
:100D000000286FD101F082FFA84203D101F0A8FFB3
:100D1000A84267D1A06AE18C49014018216B0029E3
:100D200002D08847002807D0012803D1A06AE18CAF
:100D30004901401800F0A2F8E08C401CE084A16A50
:100D40000029D6D14EE02B490A79532A01D8521CEA
:100D50000A71FF2016300818D2B2891855310C22BA
:100D600000F067FC00F0F4FD00F0F4FD224C0020E0
:100D7000E084042001F0F2FFA066002832D097281A
:100D800030D0A06A00282DD0E08CAA252C21615CEF
:100D900080B2884226D201F0ADFF002822D101F0B6
:100DA00035FFA84203D101F05BFFA8421AD1A06A27
:100DB000E18C49014018216B002902D088470028A6
:100DC00007D0012803D1A06AE18C4901401800F046
:100DD00055F8E08C401CE084A16A0029D6D101E0DE
:100DE00000F042F80020B0BD0200004001000040C9
:100DF000030000807C1900208018002008490A792F
:100E00004178012903D1002A01D1002070475423E1
:100E10005A40022359401143002900D10846704727
:100E20007C19002080B5020A054B5A544A1C92B224
:100E30009854881C81B2202000F08EFE80BDC046F0
:100E4000FC1B002080B50748002141700170012281
:100E500082709022C27001712020052100F07CFE7A
:100E600080BDC046FC1B002080B5034979440020AA
:100E7000024602F0F5FF80BD4C3B000080B500F05B
:100E8000C3FD80BDF0B581B0E24D28780C2862DD4D
:100E90000D2800D1B8E00E2800D10EE1152860D150
:100EA000DD488079012803D1A879000700D4DCE26D
:100EB0006420DA4C012121540025A56620466430C7
:100EC00001F0DAFE042001F049FFA066692800D095
:100ED000F2E100F03DFD00F03DFDE584042001F06D
:100EE0003DFFA066002800D1B6E2972800D1B3E20A
:100EF000A06A002800D1AFE2E08CAA252C21615C19
:100F000080B2884200D3A7E201F0F4FE002800D0AE
:100F1000A2E201F07BFEA84204D101F0A1FEA842AA
:100F200000D099E2A06AE18C49014018216B0029A8
:100F300002D08847002807D0012803D1A06AE18C9D
:100F40004901401800F060FDE08C401CE084A16A7B
:100F50000029D3D180E2052800D102E10C2800D17C
:100F60007AE26420D34C012121540025A566204655
:100F7000643001F081FE042001F0F0FEA0666928D3
:100F800000D0CCE100F0E4FC00F0E4FCE5840420B7
:100F900001F0E4FEA066002800D15DE2972800D1B0
:100FA0005AE2A06A002800D156E2E08CAA252C2142
:100FB000615C80B2884200D34EE201F09BFE0028C3
:100FC00000D049E201F022FEA84204D101F048FE1F
:100FD000A84200D040E2A06AE18C49014018216B90
:100FE000002902D08847002807D0012803D1A06A31
:100FF000E18C4901401800F007FDE08C401CE084C2
:10100000A16A0029D3D127E26420AA4C01212154EE
:101010000025A5662046643001F02EFE042001F074
:101020009DFEA066002800D116E2972800D113E2A9
:10103000692800D0A5E100F08BFC00F08BFCE58472
:10104000042001F08BFEA066002800D104E297285E
:1010500000D101E2A06A002800D1FDE1E08CAA25C0
:101060002C21615C80B2884200D3F5E101F042FEA0
:10107000002800D0F0E101F0C9FDA84204D101F040
:10108000EFFDA84200D0E7E1A06AE18C49014018D9
:10109000216B002902D08847002807D0012803D1FE
:1010A000A06AE18C4901401800F0AEFCE08C401CC5
:1010B000E084A16A0029D3D1CEE16426EC4D012061
:1010C000A8550027AF662846643001F0D5FD0420FE
:1010D00001F044FE0446AC66692C00D0A0E000F0AC
:1010E00037FC00F037FCEF84042001F037FEA866DF
:1010F000002800D1B0E1972800D1ADE1A86A00280E
:1011000000D1A9E1E88CAA242C21695C80B2884234
:1011100000D3A1E101F0EEFD002800D09CE101F038
:1011200075FDA04204D101F09BFDA04200D093E1E7
:10113000A86AE98C49014018296B002902D0884728
:10114000002807D0012803D1A86AE98C490140187A
:1011500000F05AFCE88C401CE884A96A0029D3D12D
:101160007AE16420C24C012121540026A666204663
:10117000643001F081FD042001F0F0FDA06600283C
:1011800000D169E1972800D166E1692800D027E104
:1011900000F0DEFB00F0DEFBE684042001F0DEFD63
:1011A000A066002800D157E1972800D154E1A06A39
:1011B000002800D150E1E08CAA252C21615C80B28E
:1011C000884200D348E101F095FD002800D043E1BA
:1011D00001F01CFDA84204D101F042FDA84200D05C
:1011E0003AE1A06AE18C49014018216B002902D044
:1011F0008847002807D0012803D1A06AE18C490163
:10120000401800F001FCE08C401CE084A16A002939
:10121000D3D121E100180020001D002080180020FB
:10122000E86B00280DD06428014600D33146401AEF
:10123000E86306D1A96B002903D0286CE86300207D
:101240008847002C00D107E1972C00D104E1A86A5F
:1012500000282AD0E88CAA242C21695C80B288421C
:1012600023D201F047FD00281FD101F0CFFCA0429E
:1012700003D101F0F5FCA04217D1A86AE98C49011D
:101280004018296B002902D08847002807D0012880
:1012900003D1A86AE98C4901401800F0B5FBE88C3D
:1012A000401CE884A96A0029D6D12C20285CE98C4E
:1012B000CEE0C04680180020A06A002800D1C4E01B
:1012C000E08CAA252C21615C80B2884200D3BCE06E
:1012D00001F010FD002800D0B7E001F097FCA84213
:1012E00004D101F0BDFCA84200D0AEE0A06AE18CC0
:1012F00049014018216B002902D08847002807D0F7
:10130000012803D1A06AE18C4901401800F07CFB60
:10131000E08C401CE084A16A0029D3D195E0A06A4A
:10132000002800D191E0E08CAA252C21615C80B2DC
:10133000884200D389E001F0DDFC002800D084E081
:1013400001F064FCA84203D101F08AFCA8427CD1E0
:10135000A06AE18C49014018216B002902D088471E
:10136000002807D0012803D1A06AE18C4901401868
:1013700000F04AFBE08C401CE084A16A0029D4D133
:1013800063E0A06A002860D0E08CAA252C21615C73
:1013900080B2884259D201F0ADFC002855D101F04D
:1013A00035FCA84203D101F05BFCA8424DD1A06AF4
:1013B000E18C49014018216B002902D088470028A0
:1013C00007D0012803D1A06AE18C4901401800F040
:1013D0001BFBE08C401CE084A16A0029D6D134E0DC
:1013E000606B002803D0E978490800F051FBA06A3F
:1013F00000282AD0E08CAA252C21615C80B288428A
:1014000023D201F077FC00281FD101F0FFFBA84296
:1014100003D101F025FCA84217D1A06AE18C490153
:101420004018216B002902D08847002807D00128E6
:1014300003D1A06AE18C4901401800F0E5FAE08C84
:10144000401CE084A16A0029D6D12C20205CE18CCC
:10145000814201D301F04EFC01F04CFC002801D187
:1014600000F02CF9012001B0F0BD102000F016F9B9
:1014700080180020B0B50546072028400024012828
:1014800014D0022814D1002909D00B4801F026FC01
:1014900068B200280ADA01F051FB002406E041207E
:1014A00081000548002201F031FC04462046B0BD11
:1014B000022000F0F3F8C046FC1B0020F0B593B00A
:1014C0000026129611961096404F4248784402909A
:1014D0004148784401904148784400900FA8068024
:1014E00003AD284602F0C4FF0446AC85A0B2002834
:1014F00014D0102859D003A886850D9801F022FC3D
:101500000F200003204009210903884203D0032152
:101510004903884222D10FA8048026E003A801F0E5
:1015200011FC11991291002411940D9010981299A8
:10153000C0B289B200F010FB1290109412980028EB
:1015400038D03878E02838D178780128029C19D032
:10155000042816D0022834D1009C13E01C48044013
:101560000D20C00220430FA908800F98000A11998E
:101570007854481C11900F9811997854481C119078
:1015800005E0019C3979781D10AA11ABA04701F044
:10159000CDFB03A9884202D10D9801F0D3FB03A82B
:1015A000808D00289AD000F079F803A886850D98E0
:1015B00001F0C8FB102000F071F83720400200F065
:1015C0006DF86D20000200F069F8C046FC1B002099
:1015D000FF07000075F9FFFF0B12000085F4FFFF05
:1015E00010B58CB06C46204602F042FFA0850D4934
:1015F000084206D1684601F0A5FB0A90FF2001F0E1
:1016000061FB01F093FB6946884202D10A9801F020
:1016100099FB6846808D002801D10CB010BD00F008
:101620003DF8C046FFFF000080B5002001F08AFBB6
:1016300080BDB0B5884208D9002A0FD0491E401E8F
:101640008B5C8354521EFBD108E0002A06D0002395
:101650009CB20D5D05555B1C521EF9D1B0BD80B525
:101660000B46002A03D011461A4602F06DFE80BDDB
:10167000B0B50023002A0FD0401E491E8C5C855C4B
:10168000521EA54202D1002AF8D105E00020C04335
:101690000123A54200D80346D8B2B0BD10B5044618
:1016A000724605487844214600F016FD01F03EFBE5
:1016B000214602F0E9FEC0461434000080B501F076
:1016C00019FB002800D080BD06480021417060222F
:1016D000027002228270C1700171052101F0FEFAD0
:1016E00080BDC04600180020B0B51A48C078032855
:1016F00007DC01280DD0022828D1174801F015FE7B
:10170000B0BD04281FD0082820D1134801F00BFEDB
:10171000B0BD114C0121204601F000FE204601F031
:10172000DDFD0E4CA079002811D120460C3000259B
:1017300007222946FFF793FF14340E22204629463C
:10174000FFF78DFFB0BD044801F0EBFDB0BD1020E8
:10175000FFF7A4FF00180020881D0020001D0020B6
:101760007F2101400020062903D8C8B2014908188A
:10177000007B7047001D002080B5164801790429C0
:1017800018D0022906D0012922D1811D134801F069
:10179000A2FC80BDC2787F211140062918D8C9B2A9
:1017A0004A000D4B9A1800239382821D0B4801F0CA
:1017B0001EFD80BDC2787F211140062908D8C9B21C
:1017C000054A521843791373821D044801F0B2FC94
:1017D00080BDC04600180020001D0020881D00208C
:1017E00070B515460E460446FF2D1BD80E485021F5
:1017F0000170202101714571E91C81708022224312
:10180000C270090A4170062101F068FA3046294683
:1018100001F064FA7F2020404000044908187D212F
:101820000901818270BDC04600180020001D002003
:1018300080B50A46014682201423FFF7D1FF80BD00
:1018400080B50C480178002900D080BD0621817147
:101850000A21017008498B784A7812021A437D23C5
:101860007D2A00D31A464280C91C0448FFF7E1FED6
:1018700080BDC046001D002000180020FC1B002079
:10188000B0B52048827841780902114300780F28CA
:101890000ADC0E2810D00F2823D10020012927D1DF
:1018A000FFF722FF0120B0BD10281ED0162818D146
:1018B000FFF7C6FF0120B0BD134881686431816025
:1018C0002021124A435A002B08D06424642B1D4661
:1018D00000D325465B1B435213420ED0891E1229AA
:1018E000F0D10220FFF7CEFAB0BD0020032900D2CC
:1018F000B0BDFFF741FF0120B0BD002101701020F5
:10190000FFF7CCFE00180020001D0020FFFF0000A4
:10191000B0B50A2001F006F909480A4901600A4CED
:101920000025242220462946FFF799FE6580257070
:10193000A571A56000F022FB044805604560B0BDBC
:10194000D01E00203100ADDE001D0020241D00202F
:101950007047000002480021016041607047C046A6
:10196000241D0020F0B589B00546084600F062FD50
:101970000446002C43D02069002840D0284600F0BF
:1019800059FD014602AD1C2228460192FFF751FE87
:101990002168E98062682A81A0681A4F65233B703C
:1019A00089B292B24A434243D1084E1C07231A42DD
:1019B00000D10E46314600910426864070181D3035
:1019C000B870000A78700321384601F087F928467C
:1019D000019901F083F9A06838700121384601F0BF
:1019E0007DF9E06800F026FDB1B201F077F90098CA
:1019F00085B2206900F01EFD294601F06FF909B09B
:101A0000F0BDC0460018002070B500F013FD04467C
:101A100020787F26064001F06DF9002830D1002E95
:101A20002ED0E06900281DD000F004FD0546052EEB
:101A300002D1A07E002824D0284602F033FD0646BD
:101A400012486521017031461C318170090A4170CC
:101A5000032101F043F91C21204601F03FF9B1B206
:101A600028460BE0094800214170652101701C25C2
:101A70008570032101F032F92046294601F02EF944
:101A800070BD20462946FFF76DFF70BD001800208D
:101A900070B50446002C28D01448066845688E426C
:101AA00001D16D1C45600E43002902D0066032460C
:101AB00005E00022026042600D4B5B1C1E438A421F
:101AC00001D000214160082D0CD30321284602F0EB
:101AD000F7FA012290073043002900D03046D107A1
:101AE000884300E030462946A04770BD241D0020F1
:101AF000FFFFFF7F80B5054800214170462202703C
:101B00008170032101F0EAF8FEE7C04600180020CA
:101B1000F0B581B00F4E01243470B11C8120470014
:101B20007A1C204601F0C0F8054675707A1B7719BB
:101B3000F91C022001F0B8F8B8702D187619F4706D
:101B400001F0A6F83071902070710020B071E81D8E
:101B500001B0F0BDFC1B0020F0B589B00B46054676
:101B6000874800688749884200D004E10720054281
:101B700007D02F46F8B299B2FFF77CFC80B209B0CB
:101B8000F0BD85210391824E804C2F460290102299
:101B9000294611401804059569D0002967D10193A1
:101BA0000092049107E080210022204601F0AEF867
:101BB000012000F0FBF801F09DF80028F3D17D2012
:101BC0000001B1680D1830780728019921D00A2842
:101BD00009D0002800D1CBE0F8B289B2FFF74AFC67
:101BE00000282DD0C4E0FF2006308FB2874200D3FA
:101BF000C3E053202070A170080A607003212046C2
:101C000001F06CF86348394601F068F80020307044
:101C100019E089B26148784400F01AFA10E0FFF741
:101C20004DFD80210022204601F070F8B068A842E6
:101C300000D39AE0FFF724FE01F05CF80028F0D111
:101C400030780028EBD10020B07130707080059D95
:101C5000A90693D4FFF732FD28060499009806D50B
:101C6000069006AA4C4B1846114601DF049900293C
:101C700004D1680673D40020B071307000207080E9
:101C800001F038F8002801D1FFF718FD8025002762
:101C9000204629463A4601F039F8022806D8A178AC
:101CA000627812020A43D11C81423BD1FFF7E8FD62
:101CB000708831780029E3D00028E1D03849794490
:101CC00004223448FFF7D4FC00282DD0354979444C
:101CD00004223048FFF7CCFC00282AD0324979444E
:101CE00004222C48FFF7C4FC00283CD1039825307F
:101CF000C5B200F0B5FFA84224D10120254D2870BF
:101D0000A81C402100F09EFF6870811C1E4A121D15
:101D10001140039B0B336B54C11C114000276F54BF
:101D2000031D16E00020A8E7FFF7F2FE0346002798
:101D30000FE000201749487003980B300870059F8A
:101D40002F4305E013480146039848706920087046
:101D50000223FDB20298074200D118E70AE7708813
:101D6000094940180AE7708808E71020FFF796FC39
:101D70000920FFF793FCFFF7BDFE0220FFF78EFC62
:101D8000D01E00203100ADDEFBFF00000018002057
:101D9000001D0020FC1B0020BE9A006017FCFFFF06
:101DA000142E0000092E0000FE2D000070B5044620
:101DB00000F0A0FF002801D1FFF780FC0C4E80212D
:101DC000002530462A4600F0A1FF3078152806D8B5
:101DD000012181400748014201D0002C05D1FFF7C5
:101DE0004FFD0125002800D10546284670BDC0469C
:101DF0000018002020702000B0B582B001AD002492
:101E00006C70662129700121A970E87004212846B0
:101E100000F064FF03212846224600F077FF02B05D
:101E2000B0BD0000F0B581B000920F4604464B4EA5
:101E3000B74210D0494D0021402628463246FFF7D0
:101E40000EFC00984028024600D332462846394608
:101E5000FFF7EFFB414EB07801280ADC002828D0BC
:101E600001286AD1F01C042100F072FE40213046A6
:101E70002BE0022827D005285FD13079F1780902BC
:101E80000143374C2068002781425CD1206800283C
:101E90001ED03448009D2918334A13686D1FADB217
:101EA000AB4200D21168051D0D4030480068711D1D
:101EB00035E0F01C002704223946FFF7D0FB402113
:101EC0003046A0473FE025484021A04700273AE0A0
:101ED000B079717909020143254801600168412206
:101EE000920091422FD801681F48016071783278C2
:101EF00012020A431F490A601C491F4A0A60009DDA
:101F0000691F8AB217495218D21C0368ED1FADB27F
:101F1000AB4200D202680D1D1540F11D16482A463D
:101F2000FFF787FB10480168491B01600F480168F3
:101F3000491901602068401C20600B48016801209D
:101F40000227002907D106480021016007480160E7
:101F5000054801603846C0B201B0F0BD2C1D00201C
:101F60006C1D0020FBFF0000741D0020781D002068
:101F7000701D00207C1D0020FC1B00200348002158
:101F80000160034801600348016070476C1D002038
:101F9000781D0020741D0020F0B581B0264F3A68EE
:101FA000264C2168002921D0002A1FD00090264D00
:101FB000002140222846FFF752FB0520A870234845
:101FC0000168090A2970006868701D490868000ADC
:101FD000E870086828710968206800290ED03B263F
:101FE0003B2800D826683968681D12E01448002193
:101FF000016039601348017021601BE039263928DF
:1020000000D826682068000A68712068A8713968BD
:10201000E81D3246FFF70DFB009A09492068801B36
:1020200020603868801938600868401C08600648DD
:102030004021904701B0F0BD781D0020741D0020A4
:102040006C1D0020001D00202C1D00207C1D002088
:1020500080B500290BD0064A00231360054A1160A1
:10206000054A064B1360064A1160FFF795FF80BDD5
:102070006C1D0020741D0020781D0020FC1B00201A
:10208000701D0020F0B581B00D460446FC201149BA
:10209000085C03281CD100F02DFE002804D06846FF
:1020A0000321002200F032FE6E4666203070B570CB
:1020B000280A707003273046394600F00FFEA9B297
:1020C000204600F00BFE00223046394600F01EFE8E
:1020D00001B0F0BD881D002083B0F0B58EB004467D
:1020E00013A80EC0002C00D191E113A8089020780D
:1020F000002800D18BE10021C94301914BE0002170
:102100007A5C491C002AFBD1491E069D05981028BF
:1021100021D1002900D176E1059638780F250540B8
:102120000009012E05D0002E10D1C0B2BD4E7E4454
:1021300002E0C0B2BC4E7E44305C0791FFF75CFE0B
:10214000E8B2305C059EFFF757FE0799491E7F1CD9
:102150000029E2D157E138460E46FFF793FF0BE026
:1021600001980799461AAD4878440121FFF78AFF84
:10217000761CF8D12E46069DB54200D843E1A81B37
:1021800000D140E1751BA64878440121FFF77AFF92
:102190006D1CF8D137E12646002502E07019407821
:1021A0006D1CC0B2002801D02528F7D13046294641
:1021B000FFF768FF7419705D252800D024E17019BD
:1021C000411C002020220A23059307900646069012
:1021D0000346104605E02146089A141D089412682B
:1021E00007920C4619462278641C00232D2AF9D048
:1021F000472A18DC2F2A23DD1346303B0A2B00D355
:10220000FCE0302A034600D11346069F002F00D081
:1022100003460A2706984743B818303806901846F0
:102220000B462146DDE7672A04DD722A1DDD732A8D
:1022300036D11FE0622A38DC482A4BD1012617E04C
:10224000252A59D02A2A26D02E2A00D0D6E0217855
:102250002A2900D0D2E06278611C0123482ABBD031
:10226000682AB9D0732AB7D0C8E0682A37D10026C7
:1022700010220592089B1A1D089203220A401F682B
:10228000012A00D1B3E0022A00D1B3E0032A0B46B1
:102290002146A6D033E72178022373299BD0ADE0F5
:1022A000752A2CD0782A1DD0A8E0632A00D196E0A8
:1022B000642A00D0A2E0039005960898011D0891B9
:1022C00000680D9000210A26002821DA40420D9076
:1022D00001211CE0582A00D090E0012602E0702A7B
:1022E00000D08BE0039005960898011D08910068C6
:1022F0000D90002110260BE00198201875E0039046
:1023000005960898011D089100680D9000210A2685
:10231000049101270790864212D8012530460746CE
:10232000314601F047FEA84209D13046784306996C
:10233000491E0691079988423D46F0D900E02F4694
:1023400002960698411E049B002B00D101460025F1
:10235000EE43002B00D11E460398C2B2302A06D1AC
:10236000002B04D009A82D23037001250023881E0B
:102370000D280CD809A82843491E04961E4601F0D2
:10238000E3FF33460698401904994018451E002B78
:1023900003D009A82D2141556D1C002F1CD0059894
:1023A000002802D02248784401E020487844069072
:1023B000029E0798394601F0FDFD314601F080FE8E
:1023C0000698405C09A948553846314601F0F2FDAF
:1023D0006D1CBE420746ECD909A8294611E00898B1
:1023E000011D089100680D900DA8012109E0069DCE
:1023F00007998BE63878002800D1B1E60648784482
:102400000521FFF73FFE2078002800D0C3E60EB07C
:10241000F0BC01BC03B00047E526000079290000AC
:1024200059290000BB290000C32900003D270000F6
:102430005327000080B50449884204D303498842E9
:1024400001D200F005F880BD0000D0C08067D0C088
:102450007A460249C91C891A401A70475124D0C0D3
:10246000F0B58DB00E46044601AD28462246FDF774
:1024700007FE314637460097303126463036204633
:102480003246FDF7FDFD284621462A46FDF7EAFDC6
:10249000394660312746603720463A46FDF7F0FD61
:1024A000204621462A46FDF7DDFD009C2146C0312D
:1024B00030463246FDF7E4FD2146F03128463A46E3
:1024C000FDF7DEFD304631462A46FDF7CBFD032001
:1024D000C001211838463A46FDF7D2FD0DB0F0BDD7
:1024E000F0B58FB00A4605460321C90151181746B9
:1024F00002972C46603403AE30462246FDF7C0FDFD
:1025000015200001391801952F46303720463A46EC
:10251000FDF7B6FD304621463246FDF7A3FD092002
:1025200040010299091820462A46FDF7A9FD2046D8
:1025300021463246FDF796FD029D2946C0313846B8
:102540003A46FDF79DFD294690313046019C2246D2
:10255000FDF796FD384639463246FDF783FD2046A5
:1025600029462246FDF78CFD0FB0F0BDF0B585B0D1
:10257000039000203F4A7A443F4E7E443F497944CD
:102580000191039C04920290002567190498421956
:1025900038463946FDF766FD384639463246FDF77E
:1025A0007DFD3035902DF0D120460199FFF758FF81
:1025B000334979442046FFF793FF049990310298FC
:1025C000401C04280A46DDD1092080012D497944A8
:1025D00004910E188F20C04302900427039C029D93
:1025E00060199030721990320146FDF73BFD30358D
:1025F000F6D1254A7A4420462146FDF74FFD23496E
:1026000079442046FFF72CFF214979442046FFF703
:1026100067FF90367F1C222FE1D199204001049959
:10262000091822201B4F7F44039C04910190029DB6
:102630006619903604984219903230463146FDF7BB
:1026400011FD304631463A46FDF728FD3035EFD1D1
:10265000114979442046FFF703FF10497944204689
:10266000FFF73EFF049990310198401C2628DCD1E9
:1026700005B0F0BD942500008F250000EC3A000065
:10268000683C00003C250000152500006A3A000067
:10269000103C0000E3240000183A0000BE3B00009C
:1026A00010B50A4604462146FDF7DCFC2046FFF73C
:1026B0005DFF10BDB0B514460A4605462946FDF734
:1026C000D1FC2846303001462246FDF7CBFC284697
:1026D000FFF74CFFB0BD80B53022FEF7AAFF80BDEA
:1026E000F0B581B000920178427812020A438178F5
:1026F000C3781B020B43190411433E4A1546144686
:1027000002C5011DC02628463246FEF792FF274625
:10271000C437384629463246FEF7B8F8272000016C
:10272000201825460C223946FEF783FF91208000B1
:10273000002429460C509F2080000C542C262E4F3C
:102740000520B8556420032139542C487844B862D8
:102750002B4878442B49794439637863BC66384602
:10276000643000F089FA0425284600F0F7FAB866CC
:10277000FFF7EEF8FFF7EEF8FC84284600F0EEFADB
:10278000B86600282ED097282CD0B86A002829D007
:10279000F88CAA25B95D80B2884223D200F0AAFA4B
:1027A00000281FD100F032FAA84203D100F058FAF5
:1027B000A84217D1B86AF98C49014018396B002931
:1027C00002D08847002807D0012803D1B86AF98CC5
:1027D00049014018FEF752FBF88C401CF884B96A96
:1027E0000029D7D1009A106810210143116001B06F
:1027F000F0BDC0467C19002080180020803C0000FD
:10280000B30000002B030000F0B581B0012808DD03
:10281000022862D0914988425FD09149884207D00E
:1028200019E19049884200D1ACE0012800D012E1C2
:10283000912080008C490B580025002B2A4601D09E
:102840005A1E0A502720000108188918C4310C228A
:10285000FEF7EFFEFFF77CF8FFF77CF8844CE58489
:10286000042000F07BFAA066002800D1F3E097284E
:1028700000D1F0E0A06A002800D1ECE0E08CAA25AD
:102880002C21615C80B2884200D3E4E000F032FA8F
:10289000002800D0DFE000F0B9F9A84204D100F030
:1028A000DFF9A84200D0D6E0A06AE18C49014018C7
:1028B000216B002902D08847002807D0012803D1C6
:1028C000A06AE18C49014018FEF7D8FAE08C401C60
:1028D000E084A16A0029D3D1BDE091208000624943
:1028E0000A5893085C2B01D8521C0A50272000017B
:1028F00008188918C4310C22FEF79BFEFFF728F850
:10290000FFF728F85A4C0020E084042000F026FA53
:10291000A066002800D19EE0972800D19BE0A06A25
:10292000002800D197E0E08CAA252C21615C80B2C0
:10293000884200D38FE000F0DDF9002800D08AE063
:1029400000F064F9A84204D100F08AF9A84200D04E
:1029500081E0A06AE18C49014018216B002902D076
:102960008847002807D0012803D1A06AE18C4901DB
:102970004018FEF783FAE08C401CE084A16A00292D
:10298000D3D168E04920C000374C20183949794438
:102990000A22FEF74EFE35482518226800242846F4
:1029A0002346FDF78FFF2818334979440222FEF7AA
:1029B00040FE2C262E4F0520B855642003213954A3
:1029C0002E487844B8622E4878443C637863BC66ED
:1029D0003846643000F050F90425284600F0BEF96E
:1029E000B866FEF7B5FFFEF7B5FFFC84284600F099
:1029F000B5F9B86600282ED097282CD0B86A0028E0
:102A000029D0F88CAA24B95D80B2884223D200F084
:102A100071F900281FD100F0F9F8A04203D100F0AD
:102A20001FF9A04217D1B86AF98C49014018396BD7
:102A3000002902D08847002807D0012803D1B86AAE
:102A4000F98C49014018FEF719FAF88C401CF884FB
:102A5000B96A0029D7D1002001B0F0BD02000040C2
:102A600001000040030000807C1900205202000099
:102A700080180020EB3A0000511E0000D63A0000FA
:102A8000ED0000004178022908D0012905D19121EB
:102A90008900084A515800290AD0704791218900BD
:102AA000044A52585D218B0000219A4200D0014611
:102AB000084670477C190020F0B5A7B0134988423A
:102AC00005D0134988421DD11448002116E0114E4B
:102AD000374601CF0FAC03AD21462A46FDF72CFE49
:102AE00034366846076046600B480146303122465E
:102AF0002B46FDF76FFE092000036021FEF792F9D7
:102B0000FEF7B2F9002027B0F0BDC04602000080F9
:102B1000010000807C190020FC1B0020856900005A
:102B200001DF704780B584B00190034801A9FFF729
:102B3000F7FF04B080BDC0463701006080B582B0A9
:102B400002486946FFF7ECFF02B080BD3C0200601E
:102B500080B584B00090019103486946FFF7E0FF1B
:102B6000019804B080BDC0462C05006080B588B0D7
:102B700001900291039204930A980590024801A9DA
:102B8000FFF7CEFF08B080BDA642006080B588B0D8
:102B900001900291039204930A980590024801A9BA
:102BA000FFF7BEFF08B080BD7D43006080B588B0F0
:102BB00001900291039204930A980590024801A99A
:102BC000FFF7AEFF08B080BD4544006080B588B017
:102BD00000900191029203930A9804900B9805903B
:102BE00002486946FFF79CFF08B080BD4D45006074
:102BF00080B586B000900191029203930248694625
:102C0000FFF78EFF06B080BDE947006080B582B057
:102C100003486946FFF784FF0198C0B202B080BD47
:102C20004F9F006080B588B0019002910392049399
:102C30000A980590024801A9FFF772FF08B080BD0D
:102C4000BA53006080B584B0009001910348694692
:102C5000FFF766FF019804B080BDC046FCA8006085
:102C600080B582B003486946FFF75AFF0198C0B2A9
:102C700002B080BD3CA0006080B584B001900348E4
:102C800001A9FFF74DFF029804B080BD58640060B1
:102C900080B582B003486946FFF742FF019802B051
:102CA00080BDC0466E6A006080B586B0019002911A
:102CB0000392034801A9FFF733FF029806B080BDD5
:102CC000D474006080B584B00190034801A9FFF777
:102CD00027FF04B080BDC046BE9A006080B584B0B6
:102CE0000090019102486946FFF71AFF04B080BDC9
:102CF0008183006080B582B003486946FFF710FF0A
:102D0000019802B080BDC046BB84006080B586B02B
:102D1000019002910392044801A9FFF701FF029874
:102D200080B206B080BDC046E485006080B582B048
:102D300003486946FFF7F4FE019802B080BDC04623
:102D4000B187006080B584B00190034801A9FFF706
:102D5000E7FE029804B080BD7588006080B584B03D
:102D60000190044801A9FFF7DBFE0298C0B204B04D
:102D700080BDC0468B9C006002490020086002496B
:102D800008607047841D0020801D002010B5074892
:102D9000002444704F210170012181700221C17013
:102DA0000421FFF79BFF204610BDC04600180020FD
:102DB00070B582B06D4600246C704F262E700220D4
:102DC000A8700320E8702C7105212846FFF786FFC4
:102DD0006C702E700120A870E87004212846FFF75F
:102DE0007DFF204602B070BD10B582B001A800245E
:102DF00044704F210170012181700221C1700421B2
:102E0000FFF76CFF204602B010BD0000B0B582B0E5
:102E1000144800240460144804606D464F20287054
:102E20006C700520A8700420E87001202871697179
:102E3000AC71012A05DC002A0AD0012A0AD104203B
:102E400006E0022A03D0032A04D1022000E0032076
:102E5000694688716846C3710821FFF73FFF00206B
:102E600002B0B0BD841D0020801D002010B582B0CE
:102E70006846002444704F220270052282700422AA
:102E8000C2700122027141718471C4710821FFF77F
:102E900025FF204602B010BDB0B582B00D46684691
:102EA000002444705021017003218170C5704021BD
:102EB000017144710621FFF711FF8020054201D006
:102EC000074800E0054801687F2215400122AA401A
:102ED0000A430260204602B0B0BDC046841D0020F7
:102EE000801D002070B582B00D46684600244470F5
:102EF0005021017003218170C570802606714471D4
:102F00000621FFF7EBFE354201D0074800E00548F7
:102F100001687F2215400122AA40914301602046AA
:102F200002B070BD841D0020801D00208020014261
:102F300001D0064800E0044802787F2001400120CB
:102F4000884010407047C046841D0020801D00202E
:102F500010B582B06846002444704F2202700222ED
:102F600082700322C27001710521FFF7B7FE20466F
:102F700002B010BDB0B582B01C461546684650225E
:102F80000270C170202101714471E11C8170090A35
:102F900041700621FFF7A2FE28462146FFF79EFE5C
:102FA000002002B0B0BD10B582B068460024447065
:102FB0005023037003238370C1703021017142716B
:102FC0000621FFF78BFE204602B010BD70B51546F6
:102FD0000E4604460220002C11D04D2081002046D0
:102FE00001F0A8F9002E02D0112000012650FC208B
:102FF0000121215425702046FFF7BEFE0020C0B2FB
:1030000070BD70B50446FC2001212154452080008C
:1030100025181720C643A8198069002806D04068E3
:10302000FFF708FA02462179204690470836F2D188
:103030002046FFF7D9FE2046FFF7A8FE002070BD0E
:103040000223002A08D00023022805D8C00008184F
:103050004521890042500023D8B2704780B5FFF760
:10306000A7FE002080BDF0B581B00C460546452086
:10307000870000262846314600F075F9002807D061
:10308000E8590068FFF7D6F90246284621469047DE
:103090000837761C032EEDD1002001B0F0BDF0B54D
:1030A00081B00C460546452087000026284631465B
:1030B00000F059F9002807D0E8594068FFF7BAF93D
:1030C00002462846214690470837761C032EEDD14C
:1030D000002001B0F0BD70B504462120C600A5193E
:1030E000284600F0A2FBF420012121508720400057
:1030F000205AF8216050A15D1F200840022808D006
:1031000001280BD000280ED12046294600F039F9BD
:103110000EE02046294600F001FB09E02046294642
:1031200000F0D7FA04E0802001402046FFF7B4FE0B
:10313000002070BDF0B583B00292044601910029D1
:103140001DD02546FC3545208600002720463946FF
:1031500000F009F900280DD0A0598069002809D095
:103160002978032906D1FFF765F90346204601991E
:10317000029A984708367F1C032FE7D134E0F420E9
:103180002058032830D1902020588C2161582246A5
:103190008C3281420AD9091A1160814200D301465A
:1031A0008AB22046029900F0CDFC1DE02646FC368E
:1031B0004520870000252046294600F0D4F8002845
:1031C0000BD0E0590069002807D03178032904D1D9
:1031D000FFF730F901462046884708376D1C032D5C
:1031E000E9D1204600F0B5FC002003B0F0BDF0B5F9
:1031F00081B00446009100291CD02746FC374520A9
:10320000850000262046314600F0ADF800280CD09D
:1032100060594069002808D03978032905D1FFF7A3
:1032200009F902462046009990470835761C032E7E
:10323000E8D150E0F4202058022844D1E069256A02
:10324000A8420BD913210A01A1584919A150401BCA
:10325000E06182B2204600F067FC34E0A6693046A7
:10326000294600F02DFFAE420FD300290DD1F820E2
:1032700020582746F837864207D20025204629469F
:103280002A4600F051FC3D601DE02646FC364520F4
:10329000870000252046294600F065F800280BD05D
:1032A000E059C068002807D03178032904D1FFF71E
:1032B000C1F801462046884708376D1C032DE9D127
:1032C000204600F052FC012001026018615C0129D7
:1032D00001D100210170002001B0F0BD70B504469D
:1032E000902040212150FC200122225421624520BF
:1032F000860000252046294600F035F8002807D032
:10330000A0594068FFF796F8024621792046904779
:1033100008366D1C032DEDD1002070BD0174002016
:103320007047002070470020704770B50446FC20AD
:10333000205C032815D1452086000025204629461B
:1033400000F011F8002808D0A059C069002804D066
:10335000FFF770F801462046884708366D1C032D9C
:10336000ECD1002070BD02460020022908D8C80018
:1033700010184521890041580120002900D1084634
:10338000704780B54A78042A08DD072A0FDC052A31
:1033900014D0062A1BD100F021F81DE0002A10D01D
:1033A000012A17D0032A12D100F040F914E0082AAC
:1033B0000AD0092A0BD100F0C8F80DE000F09FF800
:1033C0000AE000F010F907E000F0F6F804E000F081
:1033D00076F901E000F049F9002080BDB0B582B077
:1033E0000D46044601A8002101806A88100A0528BC
:1033F00013DC01281ED0022827D003283CD1D0B2EC
:1034000002283EDC002866D001286ED0022833D185
:10341000112000012058C06810E006281FD007289E
:1034200027D00F2828D1112000012058C06900287A
:1034300004D121E01120000120580068FEF7FAFFB6
:103440000246207C01A9904733E0452080002058A7
:1034500000282FD0217C002925D0C06A24E0207CC0
:10346000002809D1452080002058002804D0406B56
:103470001AE0207C00280FD02046294600F01FF9D2
:1034800027E003282CD0042834D00528F4D11120BB
:10349000000120588069D1E745208000205800288D
:1034A000EAD0006B00E0806AFEF7C4FF014601A885
:1034B0008847014601A80288002A0AD0E888002827
:1034C00007D0824200D3024601A80280204600F0C5
:1034D00015FB02B0B0BD1120000120584068ADE7D7
:1034E0001120000120580069A8E711200001205890
:1034F0008068A3E711200001205840699EE770B55D
:103500000446888800280BD1C888002808D148883C
:103510007F260640FC20205C2546FC35032803D18D
:10352000204600F0CCF870BDFE202654F1B22046B3
:10353000FFF70EFD204600F00CFB002E02D002200B
:10354000287070BD0120287070BD70B50D4604460E
:10355000AE78022E1DD2FC20215C2046FC300329CF
:1035600007D0022915D1002E22D0666003210170F8
:1035700009E0002E12D06068B04219D0C1B22046D6
:10358000FFF78DFD666020463146FFF76CFD02288F
:103590000ED12046294600F092F870BD022101703C
:1035A000666020463146FFF77AFD204600F0D1FAEA
:1035B000204600F0CEFA70BD80B5CA88012A0AD133
:1035C000FC22825C032A09D0022A04D100218160F6
:1035D0000146083103E000F072F880BD011D0122B0
:1035E00000F08CFA80BDB0B50446FC20205CFE22C1
:1035F0000240022A16D10120E060412080002158BB
:1036000025460C350320002905D0204600F0ADFAF0
:10361000E16802200843E06002222046294600F0CB
:103620006DFAB0BD204600F04AF8B0BDB0B50D4609
:1036300004466888012817D14120800001212150CB
:10364000287902280DD8C00020184521890040584B
:10365000002806D08068FEF7EDFE02462046294687
:103660009047204600F075FAB0BDB0B50D4604464F
:10367000FC20205CFE21014002291BD16888012822
:103680001CD14120800000212150287902280DD82A
:10369000C0002018452189004058002806D08068C5
:1036A000FEF7C8FE0246204629469047204600F015
:1036B00050FAB0BD2046294600F001F8B0BD10B563
:1036C00004468021FFF7E8FB00212046FFF7E4FBDA
:1036D00010BDB0B50D460446FC20205C032817D170
:1036E0002879022814D8C0002018452189004058A4
:1036F00000280DD08068FEF79DFE02462046294630
:103700009047E888002807D1204600F022FA03E01D
:1037100020462946FFF7D3FF0020B0BDB0B50D46C7
:1037200004462878602202402979202A10D10229F3
:103730000ED8C8002018452292008058002807D0D3
:103740008068FEF777FE02462046294690476AE0E9
:103750006878002816D001281DD0032863D1FC20EA
:10376000205C03281BD16888002807D180200843EB
:10377000802803D02046FFF78FFB297902294FD8F4
:10378000C80040E0FC20205C032817D0022810D19C
:1037900048060AD147E0FC20205C032827D00228F5
:1037A00007D18020084380283DD02046FFF774FBD6
:1037B00039E020462946FFF782FF34E07F200840A9
:1037C000000120180546843514308022114200D0B3
:1037D00005462046FFF7AAFB0121002800D101463B
:1037E000296002222046294600F088F91BE06888FB
:1037F000002818D1480613D02046FFF773FB28791C
:1038000002280DD8C0002018452189004058002802
:1038100006D08068FEF70EFE0246204629469047F5
:10382000204600F096F90020B0BD0A7802704A7870
:1038300042708A78CB781B02134343800A794B7914
:103840001B02134383808A79C97909021143C1801D
:10385000704770B582B00D46044601A9002008806B
:10386000694608702A7860211140002910D020296B
:1038700038D169780A460A3A022A33D302291BD082
:10388000032919D020462946FFF719FF022029E015
:1038900069780B2913D00A290ED0062922D168880D
:1038A000000A002221280ED02228114616D101AE8E
:1038B000304600F053F80AE0694601220EE0204647
:1038C00000F047F90DE001AE304600F033F8014654
:1038D0003288E888824200D302463280204600F0D7
:1038E0000DF90020C0B202B070BDF0B581B0044641
:1038F00082210326402532462B46FFF787FA02270E
:103900002046394632462B46FFF780FA2046394694
:103910002A46FFF748FB002001B0F0BD10B5044671
:103920008221FFF7A3FA02212046FFF79FFA002029
:1039300010BD0000014643208000064A125C0923A6
:103940000020002A00D003460B80002A01D1024843
:1039500078447047881D0020E82B00000146432072
:103960008000064A125C22230020002A00D0034671
:103970000B80002A01D1024878447047881D00203E
:10398000C92B000080B5022903D103487844FEF713
:1039900003FB002080BDC046A1DEFFFFB0B514468A
:1039A000022919D102214022FFF7FDFA0B4DA87917
:1039B000002811D10220FDF7D3FE024609487844C1
:1039C0002146FEF72FFA022806D107202870012091
:1039D000A8710348006868800020B0BD001D002069
:1039E000701D00206FDEFFFF122008800148784420
:1039F0007047C046CE2B0000042008800148784460
:103A00007047C046D02B00000E2008800148784443
:103A10007047C046C42B00000E200880014878443F
:103A20007047C046C22B00000A2008800148784435
:103A30007047C046C02B00000E2008800148784423
:103A40007047C046A22B00000E2008800148784431
:103A50007047C046922B000000200880704700008D
:103A6000F0B581B005464D20840018480026314647
:103A70002246FDF7F4FD164F38460C30072231463A
:103A8000FDF7EDFD14370E2238463146FDF7E7FD10
:103A9000002D16D00D4D0026284631462246FDF752
:103AA000DEFD0C49794428463246FFF78FFA0A4A70
:103AB0007A4430462946FFF7C3FA2846FFF7CEFA84
:103AC00002E00248FFF79DFA01B0F0BD881D00201A
:103AD000001D0020C02A0000D42A000029210180F6
:103AE000014878447047C046162B00000A21018027
:103AF000014878447047C046322B0000B0B50C46F0
:103B0000F421022343501321090144508261C26110
:103B1000016A914200D80A4693B2002529462246FE
:103B2000FFF728FA2846B0BDB0B50C46016A9142AD
:103B300000D80A4693B2002529462246FFF71AFA12
:103B40002846B0BD10B500242146FFF72CFA2046C8
:103B500010BD10B5F4210422425000242146224613
:103B60002346FFF707FA204610BD10B5F4210522C1
:103B70004250002421462246FFF715FA204610BD88
:103B8000F0B583B006466948001D202201903146F9
:103B9000FDF74FFD664C2169A068002901D08847D8
:103BA00003E01C21414320684018FEF743FC0290CB
:103BB000A0680027002805D02169401E002904D0F4
:103BC000884706E038463A4607E01C214143206812
:103BD0004018FEF72FFC0246A0686168491E884223
:103BE00011D2234615461969401C002902D01C46F3
:103BF000884704E01C2141431C4618684018FEF722
:103C000019FC07462A46707840280EDC20282ADC5A
:103C10001028029B3FD020287DD10020002B00D10E
:103C200081E0596900297ED164E0802829DC41289F
:103C3000029B3ED042286ED10020002B73D05969E0
:103C4000002970D1D96800296DD16268511E002FFA
:103C500069D0012A67D0A2688A4264D0F968002935
:103C600061D138693DE02128029B3DD0222852D104
:103C70000020002B57D05969002954D02B480162ED
:103C80003BE08228029B40D0812844D1A1680020DB
:103C9000002940D147E00020002B44D0D9680029FA
:103CA00041D022480162587E002834D01F49C88084
:103CB00031E00020002B36D05969002933D1002A89
:103CC00031D0D96800292ED1A16800292BD0616894
:103CD000012928D0D168002925D15169002922D194
:103CE00010691249086216E00020002B1BD05969A8
:103CF000002918D018690D490862187E00280AD0DA
:103D000008210A4A9183D08005E06068A168421EBC
:103D10000020914207D0E268002A019803D00348AE
:103D2000011D1846904703B0F0BDC0468018002022
:103D3000BC1E0020F0B581B00546424F3969B86815
:103D4000002901D0884703E01C214143386840180E
:103D5000FEF770FB064601243B48854214DD3B48D4
:103D6000854216D03A4885421BD03A48854265D1F3
:103D70003068002859D0B468FEF75CFB0146FA6849
:103D8000204600F06DF858E033498D4209D0854255
:103D900054D17968B868491E002488424ED2401C2C
:103DA00004E0B8680024002848D0401EB860FDF741
:103DB000CFFDFDF7CFFD294D0024EC840420FEF754
:103DC000CDFFA866002839D0972837D0A86A0028E8
:103DD00034D0E88CAA262C21695C80B288422DD28E
:103DE000FEF788FF002829D1FEF710FFB04203D16B
:103DF000FEF736FFB04221D1A86AE98C490140188C
:103E0000296B002902D08847002807D0012803D158
:103E1000A86AE98C49014018FDF730F8E88C401C8D
:103E2000E884A96A0029D6D108E07068002805D086
:103E3000FEF700FB0146B06888470024204601B029
:103E4000F0BDC046BC1E0020020000800200004001
:103E50000100004003000080010000808018002065
:103E6000F0B583B002920D460190414E00200090C3
:103E70007060002D15D0404979441C2728463A46E9
:103E8000FDF7F6FB00280CD03C4C7C447068401CCD
:103E900070607843281821463A46FDF7E9FB002870
:103EA000F4D10199481C05D070688842009800D36D
:103EB0000846B0602C2101912E4F092078546420CF
:103EC00003213954356000250298F06035612C4893
:103ED0007844B8622B4878442B4979443963786335
:103EE000BD6638466430FEF7C7FE04242046FEF760
:103EF00035FFB866FDF72CFDFDF72CFDFD84019D17
:103F00002046FEF72BFFB86600282ED097282CD02D
:103F1000B86A002829D0F88CAA24795D80B288423A
:103F200023D2FEF7E7FE00281FD1FEF76FFEA04266
:103F300003D1FEF795FEA04217D1B86AF98C49016A
:103F40004018396B002902D08847002807D0012883
:103F500003D1B86AF98C49014018FCF78FFFF88C3F
:103F6000401CF884B96A0029D7D103B0F0BDC0461F
:103F7000BC1E002080180020D8280000C6280000A1
:103F8000602700005BFEFFFFA3FCFFFF10B5084C9D
:103F90002078002808D12046243000212022FDF777
:103FA0005EFB2078401C2070C0B2401E10BDC04691
:103FB00080180020002243088B4274D303098B42EF
:103FC0005FD3030A8B4244D3030B8B4228D3030CE9
:103FD0008B420DD3FF22090212BA030C8B4202D38B
:103FE0001212090265D0030B8B4219D300E0090AB3
:103FF000C30B8B4201D3CB03C01A5241830B8B42BC
:1040000001D38B03C01A5241430B8B4201D34B03A4
:10401000C01A5241030B8B4201D30B03C01A524109
:10402000C30A8B4201D3CB02C01A5241830A8B428E
:1040300001D38B02C01A5241430A8B4201D34B0277
:10404000C01A5241030A8B4201D30B02C01A5241DB
:10405000CDD2C3098B4201D3CB01C01A524183098F
:104060008B4201D38B01C01A524143098B4201D3C9
:104070004B01C01A524103098B4201D30B01C01AF4
:104080005241C3088B4201D3CB00C01A524183086E
:104090008B4201D38B00C01A524143088B4201D39B
:1040A0004B00C01A5241411A00D2014652411046FB
:1040B0007047FFE701B5002000F006F802BDC046DA
:1040C0000029F7D076E770477047C046002B11D122
:1040D000002A0FD1002900D1002802D00021C943B5
:1040E000081C07B4024802A14018029003BDC04654
:1040F000D9FFFFFF03B4684601B5029800F030F81D
:10410000019B9E4602B00CBC7047C046F0B5CE463F
:10411000474615042D0C2E0080B50704140C3F0CE7
:104120009946030C7E435D43674363437F19340C18
:10413000E4199C46A54203D980235B029846C444F7
:104140004B46514343433604360C250C2404654446
:10415000A4195918491920000CBC90469946F0BD85
:10416000F0B557464E464546DE46E0B5040083B0FE
:104170000D00924699468B422FD82CD04946504686
:1041800000F0AEF829000600200000F0A9F8331A6C
:104190009846203B9B4600D574E053465A469340D0
:1041A0001F005346424693401E00AF4229D826D0F6
:1041B0005B46A41BBD41002B00DA79E000220023FE
:1041C0000092019301235A469340019301234246F2
:1041D0009340009319E08242D0D90022002300923C
:1041E00001930C9B002B01D01C605D60009801992D
:1041F00003B03CBC90469946A246AB46F0BDA342F4
:10420000D6D900220023009201934346002BE8D028
:10421000FB0772081A4346467B080EE0AB4201D109
:10422000A2420CD8A41A9D41012024196D410021FD
:10423000013E24184D41002E06D0AB42EED9013E7E
:1042400024196D41002EF8D15B46009801990019A0
:104250006941002B22DB2B005A46D3402A004446FA
:10426000E2401C005B461500002B2CDB26009E4024
:10427000330026004746BE403200801A9941009024
:104280000191AEE7424620239B1A5246DA4041464E
:1042900013004A468A4017001F4382E74246202304
:1042A0009B1A2A0046469A402300F3401343D5E761
:1042B0004246202300219B1A0022009101920122F4
:1042C000DA40019282E74246202326009B1ADE4014
:1042D0002F00B446974066463B003343C9E7C046CB
:1042E00010B5002903D100F007F8203002E0081CC7
:1042F00000F002F810BDC0461C2101231B049842A7
:1043000001D3000C10391B0A984201D3000A083966
:104310001B09984201D30009043902A2105C40181D
:104320007047C046040302020101010100000000C1
:104330000000000010B5002200F006F810BDC046D5
:1043400010B500F009F810BD130010B50A001900EF
:1043500000F044F810BDC046F0B505000F2A2FD973
:104360000B0003439B0734D116000C000300103EE2
:10437000350901352D01451927681F6067685F60A1
:10438000A7689F60E7681034DF6010339D42F3D167
:104390000F239E431036851989191340032B1AD910
:1043A0001E1F0023B4080134A400CF58EF5004337B
:1043B000A342FAD10324A643331D2240C918ED18A5
:1043C000002A05D00023CC5CEC5401339342FAD18F
:1043D000F0BD0500F6E71A00F2E7C046F0B5830726
:1043E00043D0541E002A3FD0CEB20200032502E083
:1043F0001A00013C38D3531C16702B42F8D1032C01
:104400002AD9FF220A40150215432A0415430F2C0E
:1044100014D927001A00103F3E09013636019E19B3
:10442000156055609560D56010329642F8D10F2224
:1044300097431037DB191440032C0DD91A00271F9E
:10444000BE080136B6009E1920C2B242FCD103223A
:1044500097430437DB191440002C05D0C9B21C194E
:10446000197001339C42FBD1F0BD14000300C6E774
:10447000F0C041464A4653465C466D4676467EC08D
:104480002838F0C80020704710307CC89046994604
:10449000A246AB46B54608C82838F0C8081C00D16B
:1044A0000120184710B5830725D00378002B24D0AE
:1044B0000300032102E01A78002A1AD001330B42CC
:1044C000F9D119680E4A0F4C8A188A43224206D144
:1044D000043319680A4A8A188A432242F8D01A001B
:1044E0001B78002B03D0013211780029FBD1101A60
:1044F00010BD181AFCE70300E3E70020F8E7C04608
:10450000FFFEFEFE808080802404893FDAD8878EFB
:1045100071503C69B09DBF88B48A3614289B09014C
:104520002012246D2242412000000001800C181846
:1045300000000000000000012404893FDAD8878EC3
:1045400071503C69B09DBF88B48A3614289B09011C
:10455000801830918303018000000001800C18183E
:10456000000000000000000100000000000000004A
:10457000000000000000000000000000000000003B
:10458000000000000000000000000000000000002B
:10459000000000000000000000000000000000001B
:1045A000000000000000000000000000000000000B
:1045B00000000000000000000000000000000000FB
:1045C00000000000000000010000000000000000EA
:1045D00000000000000000000000000000000000DB
:1045E00000000000000000000000000000000000CB
:1045F00000000000000000030000000000000000B8
:1046000000000000000000000000000000000000AA
:10461000000000000000000000000000000000009A
:104620000000000000000008000000000000000082
:10463000000000000000000000000000000000007A
:10464000000000000000000000000000000000006A
:10465000000000000000000000000000000000005A
:10466000000000000000000000000000000000004A
:10467000000000000000000000000000000000003A
:104680000000000000000001000000000000000029
:10469000000000000000000000000000000000001A
:1046A000000000000000000000000000000000000A
:1046B00000000000000000000000000000000000FA
:1046C00000000000000000000000000000000000EA
:1046D00000000000000000000000000000000000DA
:1046E00000000000000000000000000000000000CA
:1046F00000000000000000000000000000000000BA
:1047000000000000000000000000000000000000A9
:1047100000000000000000010A50CA03E4FFAD6E73
:1047200034FE4C72F13F2FBE5B32D09541FC195ADA
:10473000619161765F55C5CE9843BE34353B8A3E64
:10474000FDC403CD9D3C5606103B9C65528D48EA46
:10475000197E4CAAC51D8FDA9AB0F624F92E9B3F1C
:10476000752B8022F91A3523600E459640F0B40669
:104770006EBE4D568DA58EA009D3B2798B0BDD9FF1
:1047800080BD983F81FB4C7AAAD12D82BA2AF9C00C
:104790008E78B2716DC25B4FCE20398E6C36420B73
:1047A000AC75C6EFDBE2C887080368C9B06F76E274
:1047B000B7257D37B16BB57C2443EF5BD19C182EB8
:1047C0005BF1623947952BCA0E70461CBBC17382E0
:1047D000A75E444712547B0E3031323334353637BE
:1047E00038396162636465660047656E657261743D
:1047F00065205075626C6963004B65792023003F2A
:1048000000436F6D706172653A00000003000000A4
:1048100000008000200000000100000000000000F7
:10482000FFFFFF0000000000000000000500030083
:104830000C0007000700000000000000FFFFFF0061
:1048400000000000000007000000000005007500E7
:104850000D0008000600000000000000FFFFFF0040
:10486000000000000000060000000000070000003B
:104870000C0080000C00000000000000FFFFFF00A3
:10488000000000000A8000008119002007000000DD
:104890001A0080000C00000000000000FFFFFF0075
:1048A000000000000A800000A91900200300000099
:1048B0000000800020000000010000000000000057
:1048C000FFFFFF00000000000000000005010300E2
:1048D0000C0007000700000000000000FFFFFF00C1
:1048E0000000000000000900000000000502750043
:1048F0000D0008000600000000000000FFFFFF00A0
:104900000000000000000A00000000000700000096
:104910000C0080000C00000000000000FFFFFF0002
:10492000000000000A8000000148D0C0070000001D
:104930001A0080000C00000000000000FFFFFF00D4
:10494000000000000A800000911A00200000000012
:10495000FFFFFF00E001FEC1FD387F06DF81FFC4DD
:104960007FF3FFBC1FE7E7F13FF807780000000086
:104970000E0000000E000000010000004C49D0C0F5
:104980005449D0C000000000FFFFFF00E001FEC15D
:10499000FF387006D8797E9E9FE7E7B901E6C0F13F
:1049A0003FF80778000000000E0000000E00000035
:1049B000010000008449D0C08C49D0C00000000034
:1049C0000000000000000000000000002C4AD0C0E1
:1049D000384AD0C000000000684AD0C00000000083
:1049E0000000000000000000444AD0C000000000A9
:1049F0000000000000000000C52CD0C00000000036
:104A0000A849D0C04A4AD0C000000000321D0000B2
:104A10000000000000000000000000000000000096
:104A200000000000000000000000000057616974F1
:104A3000696E6720666F7200636F6D6D616E64737F
:104A40002E2E2E0041626F757400517569742061BD
:104A500070700056657273696F6E00302E302E31A3
:104A6000004261636B0000000000000000000000D5
:104A70000000000000000000534AD0C05B4AD0C0D4
:104A800000000000BC49D0C0000000000000000091
:104A90007049D0C0614AD0C0000000003D2800002D
:104AA0000000000000000000000000000000000006
:104AB0000000000000000000000000006578636551
:104AC0007074696F6E5B25645D3A204C523D30789E
:104AD000253038580A00B001000000B0A7000000DF
:104AE000B00200000020004552524F5200303132D7
:104AF0003334353637383961626364656630313254
:104B00003334353637383941424344454611000085
:104B10000000000000000000000000000000ACB633
:104B20004632169B32EAACA021D85A37E62B1274D3
:104B30004BD12A71C379A940453AF43FB62D000004
:104B400000000000000000000000000000005CAC5D
:104B5000B0C7349E78281BB7870551E552E699A364
:104B6000B7373F85ACD3C790449C2A8A67A700001B
:104B70000000000000000000000000000000A4EBA6
:104B8000122DCDAF6517B707ED42D6CB7A077DA7BB
:104B90000168A75C78A941C11DC9806FA1690000A7
:104BA0000000000000000000000000000000D4B879
:104BB00030A0CB1A4D53A31B9B11D0DA4152657123
:104BC0002E3DD02EBA2467E7395DEE4D4C540000DF
:104BD00000000000000000000000000000008DA6A2
:104BE000ACE6A29E6CC4493A5847362D005B63F68A
:104BF0001DE81EC2D28684406C7CDD65BBF70000D8
:104C00000000000000000000000000000000F7E3CA
:104C10007F99134EBC0E7654869BED1E448CB29148
:104C2000F9CD55967343BE04E7A94D59D2E500006E
:104C30000000000000000000000000000000BAFAC0
:104C4000319EE4CF95AB44485A9EB012C37C04C356
:104C5000A52D134A792D0874CD92211C4E06000013
:104C6000000000000000000000000000000063EEF3
:104C7000E9DB53E64CCBF4178E92CE4809DDF58F75
:104C8000338CF30B4EB9B0EAC97B6EA702C50000A6
:104C9000000000000000000000000000000033C61B
:104CA000DAFD93090751A750847A6853CA9D50AA28
:104CB00055F3AF8C558DC565ABAC484B6B08000008
:104CC00000000000000000000000000000008BC594
:104CD000A96F35388C696264237415248C1CDC122E
:104CE0001C4362FEED9C449B3857FE5D7DFD000039
:104CF0000000000000000000000000000000961E00
:104D000095CC0CEA64427B334B69C304DFC4E2AC4C
:104D1000A6FFA228CB3306565B410B5A69630000FD
:104D200000000000000000000000000000007CA760
:104D300027F1D223F7ABCDE69898258B0303D489CE
:104D4000992FCDBDED7008DFBA2642D899530000E7
:104D50000000000000000000000000000000B19210
:104D60004B2AD43AC7EEA5E94300DE7E219E7D5D45
:104D7000BBC4C4ECE36AA3E41DF7210676FD000082
:104D80000000000000000000000000000000F55AD4
:104D9000DC1B3E82FE726C16E811DD5D7E52CCA3F8
:104DA000583FEF563E586F110C0769AAEFCF00002D
:104DB000000000000000000000000000000037B408
:104DC0004E88BDDEAB5D930F5DEA632210851EBF8A
:104DD0006A502D46FC7594933348BD19CD70000080
:104DE0000000000000000000000000000000F03D96
:104DF000E486020F0F7D47F93FED5A6A72C0AD2677
:104E0000EAC82A2F789FCA49B17A5714B3B800006C
:104E10000000000000000000000000000000270566
:104E20002588917D2A0B2B38A776D7A440EE78A74A
:104E3000F90A61ABE3C03D8DA288F7288D9600008A
:104E40000000000000000000000000000000D28D03
:104E5000E978D2EC793C2DB1BEF3D811830AAB4B83
:104E6000F987A68EB74B1FA7984D1696F53400000C
:104E700000000000000000000000000000005F666D
:104E80004D544ED1D327EF1C1EDBF7B29C1DA65507
:104E90000C4E03FDBC136D569EC4E3DEF36C0000A4
:104EA0000000000000000000000000000000AB0552
:104EB000E4E5B7B10ED9A1AE2BF79F30B8CDDC5DDC
:104EC000E6D846860C7ABE2F47E57D9F0EB60000D9
:104ED0000000000000000000000000000000133689
:104EE000C72A14A15E6528C32F362AD5BE64B7C071
:104EF00018D73177BBE4EF7398F39C46ED40000080
:104F00000000000000000000000000000000F15E52
:104F1000FDD3DA581D6A9E936C8DC1C598918CB5EE
:104F2000075A16C73FEDA95C1D20CD82E49F000003
:104F300000000000000000000000000000008F5C86
:104F40008C028E04A4E5E6F1D1A003176574EF612D
:104F500004E5D3541D7C95F7F42CDC106D13000090
:104F600000000000000000000000000000005F974B
:104F700050AB5B96181EE7B6D116E9F385958562AE
:104F8000370DBBB52798DFDC15C9982151B7000054
:104F9000000000000000000000000000000005FA12
:104FA000A8CBC151D9C84E81D975302E7E64F67A0E
:104FB0000EEFAF17B7131F4397CD91C2DEE8000085
:104FC000000000000000000000000000000093B39B
:104FD0004C07D6B470D9255D6773856C1EE81067E1
:104FE0003CBA0E16285245CA71C0ECCCB015000070
:104FF0000000000000000000000000000000387702
:10500000CCC5E2D5350CD01BC170A676D97316F18C
:105010002605F3FF74DA72472FF8AF5F80F00000C7
:105020000000000000000000000000000000C56E4D
:105030005B18C5F2A993780FF4C76552ACF1B4457B
:105040008D1212D3A2F9D17179928074072A0000CF
:105050000000000000000000000000000000516996
:10506000B0605862A2D3413F90F47FE338EDB5B60B
:105070005872A10BD41B42B0B06C3DB9B17C00009A
:105080000000000000000000000000000000984840
:10509000F3E79D6AEAB4C554B112D17DC290B52040
:1050A0000F60121F23DC817B5445754BDC750000BB
:1050B00000000000000000000000000000009791C8
:1050C000D2E6B0B626726CFD079609BF57642989EF
:1050D0006E76FCC0FE8768583EFD897025FA000098
:1050E0000000000000000000000000000000F63E8C
:1050F000B4D22D57F7FD772D1B9400100484236341
:105100005B9829DE36857B302857017DC811000069
:105110000000000000000000000000000000E0555A
:105120008631658ADCC4B71CB45BDE38F4E8D02D68
:1051300042C96E546689E138156792E72EE1000096
:105140000000000000000000000000000000C22875
:105150003DD53CA1F5E3C3E1D72A1F100A702AF31D
:105160002744FE6D1A5348EA9D17A8A81D12000097
:1051700000000000000000000000000000001871A6
:105180002093A9B1F64D5B64DC0AE720116027A4E7
:10519000DB31AFE720E9D069FB44BCEAD0CF0000A7
:1051A0000000000000000000000000000000F77F89
:1051B00018794B5B4BEFF2009D9D037D564882268C
:1051C000E47E4AF42DFFD3C945F7738E9031000079
:1051D0000000000000000000000000000000D36C90
:1051E000AC1B7EE6104130BAB1C3A9A12800B63489
:1051F00062D956EAA7565CC217838B69105A000021
:105200000000000000000000000000000000D1AA23
:10521000220A13F296212F1EDCAAF9B18AE3EAA929
:10522000178FCC420F1871C9C8A4E658352C00005E
:105230000000000000000000000000000000AB843F
:10524000134F823D954CAA595E390C6AE0F704D39E
:105250001D6EF011BCA1791B0382139FAC130000DB
:1052600000000000000000000000000000003D768B
:105270000685967F3C1EF621026CAAC2E0E9F1C6C3
:105280007594C8F3CAD41E2828EC72492936000048
:1052900000000000000000000000000000005E3878
:1052A00015DFB513BD46944A3BFF8B0EC1EC6FED85
:1052B0005AAD56821E27C26E44D86039D03E0000D7
:1052C0000000000000000000000000000000D3FC0F
:1052D000796AE9D3BFAE59C5E955E58A019414CC82
:1052E0007041D309D17FC64F21D1710D71120000D9
:1052F0000000000000000000000000000000EDBC05
:10530000AC34FA1BE84DCDA341A85B78C79CF3D51C
:10531000EF77051B631CEC92C389B7C928BA00005C
:10532000000000000000000000000000000026480F
:10533000992797EFB6E6D60073999A1A196AD0940E
:1053400012280EC2218D5A0C1BAF279F6CDA000069
:1053500000000000000000000000000000007222B9
:10536000889330D3D841A18E7A428AD70D50196CD8
:1053700088E3DC8F9DA1A025085D46E772E400006C
:1053800000000000000000000000000000002720D6
:10539000C33EA95A5DE0A4B5EA6A757624EC356E81
:1053A0005E4E1A7BDD456B1CBBD68CBDB5E20000A2
:1053B0000000000000000000000000000000F77383
:1053C000BA73DF513FD2BBC27D4B8FF56DAFF1E2B7
:1053D000F781C3CBED04B15B93FFB9A1D0BB000053
:1053E00000000000000000000000000000007E58E7
:1053F000EF872B62289DA9FEC15E6E686E6B6EE022
:105400007CDF6D2BB56CAB54BD59BFFE24CF0000C3
:105410000000000000000000000000000000CB675A
:10542000D6EE83B442B42C347860322DE8CC00E858
:10543000733BB4EAA94FC094578666FEA2CB000026
:1054400000000000000000000000000000008204D6
:105450001EEC891BE8E92CAE8E7DF48ABCE35DB4BA
:1054600045B889EBBAFA9AFAD0F350442A6D000095
:105470000000000000000000000000000000CEE579
:1054800076A363725E5E2A4969E08DDE67DD8BBDBF
:10549000DD52CA8127BA5556D85E095F2AEA000054
:1054A0000000000000000000000000000000675243
:1054B000A154BA67E9235BD41B0707379F4BFF351D
:1054C000676F15AFF267BEA901BA18597F090000CE
:1054D00000000000000000000000000000001BC7EA
:1054E000CEC4646CFB0E9EEA8CA6476F2D8CB22056
:1054F000B4176C9A2C04A265B3ABD78FBC750000AF
:10550000000000000000000000000000000078041F
:105510001D952A1047CC9DD36D0C675423CE36A819
:1055200000D2B1538B800A75CA8FDA74FEA10000D5
:105530000000000000000000000000000000CB8020
:105540006DE8CBAB1648491D863FEE799DC689555F
:105550007A5518DED8ED7C8CF737AB8E01900000C1
:105560000000000000000000000000000000215FBB
:10557000B2C57D96A68909A43B434140B3B92071C9
:10558000D6D2418255FAF9047DE92ACE0AED00000F
:105590000000000000000000000000000000A9184A
:1055A0005475D8A95220C42967FC67325C6A258EDD
:1055B0007BF600F74BD47145D91A4AD89EBD00003E
:1055C0000000000000000000000000000000538EFA
:1055D0005E762DB89EEECF54481548268DC870A92A
:1055E000BED65881C1C2B1CC2A1B58C3DF3A0000D5
:1055F0000000000000000000000000000000BBD21E
:10560000C9F8A70CED2CA214689874AAF41BE41B2B
:10561000368C3C6BA6AAF13ED6D4D8C159D5000031
:105620000000000000000000000000000000B35671
:1056300065762576B3D486F306834B08ABE770A76F
:10564000F2DA80CA951AC2A8A8F9733BA6E0000056
:1056500000000000000000000000000000003E9973
:10566000110783D924406D5BD0F97EE344B1F6C5C0
:1056700016DC7C7A930484C76EA31E7514BD0000EB
:1056800000000000000000000000000000002643B1
:10569000D2057354A47CB1CA7A0A027DF284709157
:1056A000EA746417DD182BF261B5BDB9D859000052
:1056B00000000000000000000000000000008B9CC3
:1056C000F0185A5EC7DC6892BDBC3006D5FBACA6AC
:1056D000CCA749CEACECDECCE852C041630100005F
:1056E0000000000000000000000000000000208E0C
:1056F000053D931EEF697C30405C3DC1E8B7E69EF6
:10570000EF4862033471F7D9B87F0F03F7B6000092
:1057100000000000000000000000000000000A5B24
:105720009D297436439C6CDABFBC1F833396C083BB
:105730004957B4840909B02CDD5FCB10BDF80000D7
:1057400000000000000000000000000000008CCB02
:105750002AC2BA6193EE9A5E4328995E2455CF4AD5
:105760002A20B3774013EDE897CD9C842B6B000083
:10577000000000000000000000000000000069A020
:105780005C025EEB25CC57235CC5F3D370CC60EF95
:10579000C33B28FA3601ACB8948BA05D7B1B00009C
:1057A00000000000000000000000000000005CE5B8
:1057B000210DBD3EB5650D9D316C9DA214ABB72A80
:1057C00067BAA5A44DC8F9EF81D0EF99A9350000BB
:1057D00000000000000000000000000000005699DA
:1057E0004970D667299962A9A4B52120A4D69E86BE
:1057F00026357FAFC6B88C38FA289B071CFE000000
:10580000000000000000000000000000000052F650
:10581000F5545804EF31CEA7AF3F6FA944D056C21C
:105820004C57F93160A54AEB02EBC11ECC9B00003E
:10583000000000000000000000000000000095CE05
:105840005544F0AB58D494373473A5F728F0696603
:10585000AAC3F063701A604273A55466A90E0000D3
:10586000000000000000000000000000000032F016
:10587000D19EE7B9C17D4890A21B435D42A1A838E3
:10588000A91DC4DEF3B8631EB0F059BB890D00003A
:105890000000000000000000000000000000ABF568
:1058A0004B517739D08AE75F4A3C921684CE7421F7
:1058B00093E33A683E9EDE9E3040DDCCF9910000D5
:1058C00000000000000000000000000000002E08A2
:1058D00065ACA2F459E2C9C54E1179037E0130C806
:1058E0002039DDC78BF3AA3D0D22480762B70000BF
:1058F00000000000000000000000000000006864DC
:10590000031DA7169F7719597260F0EC162D9B9313
:10591000FA1FB05847C7DE8E32CE09D9A6AF0000B5
:1059200000000000000000000000000000005EAF6A
:105930002670696FA0FB2A41E8F2C63841697FD61C
:10594000A256D26361EB5F33C42D24C7AECF0000F3
:1059500000000000000000000000000000001390A4
:10596000F7EE3905A431E460B7880ACADDA8639F61
:105970009BE8C3FDBEB64A6C24B27BF4EF50000036
:10598000000000000000000000000000000004050E
:10599000E134A1D79717A18660AB2FDDBC5C2AF05C
:1059A0009F3DBEFB0ABF954DE3F76ED97BB4000067
:1059B00000000000000000000000000000002EE9D0
:1059C00094B648EC0DBA5E33CD165760252C2B1DCE
:1059D000B077BA115BC07B6178E83B0628EA00002B
:1059E00000000000000000000000000000004D76F4
:1059F000162F9EEDB9C6C3B95EDC4F07C69BEC19E6
:105A00008B1463F8BA26D17A3A670286DA9A0000D4
:105A100000000000000000000000000000004E74C4
:105A2000F577F508092FA2781A2397E9CD4F28803A
:105A3000C3488EDC02C8B38EF2BF9928E6B70000D7
:105A400000000000000000000000000000008A507C
:105A50002A5546A4BF505907C3DEFD99D121F488C9
:105A60001D1AB9A1FC0396F9D1B6C1D45E98000005
:105A70000000000000000000000000000000F8121C
:105A80002E2273F952E44C2307EE48A94816191246
:105A9000993EBE19EFBEA6F3DD844105E46C00001B
:105AA0000000000000000000000000000000F12BDA
:105AB000C765DFA374C811313001867A51AAF64454
:105AC000CD44D9D6DB4D684B2994C84F823F0000A6
:105AD00000000000000000000000000000008CEC4E
